{
  "_format": "hh-sol-artifact-1",
  "contractName": "Proxy",
  "sourceName": "contracts/Proxy.sol",
  "abi": [
    {
      "anonymous": false,
      "inputs": [
        {
          "indexed": false,
          "internalType": "bytes4",
          "name": "sig",
          "type": "bytes4"
        }
      ],
      "name": "FallbackCalled",
      "type": "event"
    },
    {
      "inputs": [
        {
          "internalType": "string",
          "name": "name",
          "type": "string"
        },
        {
          "internalType": "uint256",
          "name": "candidateId",
          "type": "uint256"
        },
        {
          "internalType": "string",
          "name": "party",
          "type": "string"
        }
      ],
      "name": "addCandidates",
      "outputs": [],
      "stateMutability": "payable",
      "type": "function"
    },
    {
      "inputs": [
        {
          "internalType": "address payable",
          "name": "_to",
          "type": "address"
        }
      ],
      "name": "callTransfer",
      "outputs": [],
      "stateMutability": "payable",
      "type": "function"
    },
    {
      "inputs": [],
      "name": "getListCandidates",
      "outputs": [
        {
          "internalType": "string[]",
          "name": "candidateNames",
          "type": "string[]"
        },
        {
          "internalType": "uint256[]",
          "name": "ids",
          "type": "uint256[]"
        },
        {
          "internalType": "string[]",
          "name": "party",
          "type": "string[]"
        },
        {
          "internalType": "uint256[]",
          "name": "voteCounts",
          "type": "uint256[]"
        }
      ],
      "stateMutability": "view",
      "type": "function"
    },
    {
      "inputs": [
        {
          "internalType": "address",
          "name": "voter",
          "type": "address"
        }
      ],
      "name": "getVote",
      "outputs": [
        {
          "internalType": "bool",
          "name": "hasVote",
          "type": "bool"
        }
      ],
      "stateMutability": "view",
      "type": "function"
    },
    {
      "inputs": [],
      "name": "getWinner",
      "outputs": [
        {
          "internalType": "string",
          "name": "winnerName",
          "type": "string"
        },
        {
          "internalType": "uint256",
          "name": "winnerVoteCount",
          "type": "uint256"
        }
      ],
      "stateMutability": "view",
      "type": "function"
    },
    {
      "inputs": [
        {
          "internalType": "address",
          "name": "_transferAddress",
          "type": "address"
        },
        {
          "internalType": "address",
          "name": "_voteAddress",
          "type": "address"
        }
      ],
      "name": "starting",
      "outputs": [],
      "stateMutability": "nonpayable",
      "type": "function"
    },
    {
      "inputs": [
        {
          "internalType": "string",
          "name": "_selector",
          "type": "string"
        },
        {
          "internalType": "address",
          "name": "_newImplementation",
          "type": "address"
        }
      ],
      "name": "updateProxy",
      "outputs": [],
      "stateMutability": "nonpayable",
      "type": "function"
    },
    {
      "inputs": [
        {
          "internalType": "uint256",
          "name": "candidateId",
          "type": "uint256"
        },
        {
          "internalType": "address",
          "name": "voter",
          "type": "address"
        }
      ],
      "name": "vote",
      "outputs": [],
      "stateMutability": "payable",
      "type": "function"
    }
  ],
  "bytecode": "0x608060405234801561001057600080fd5b50610d3e806100206000396000f3fe60806040526004361061007b5760003560e01c80638d337b811161004e5780638d337b81146102135780638e7ea5b214610243578063dac8fa2a14610266578063eec990f21461027957600080fd5b806302d947ef146100805780634b9ab850146100955780634d6f9dfb146100b5578063690ff8a1146101e5575b600080fd5b61009361008e366004610a5a565b61028c565b005b3480156100a157600080fd5b506100936100b0366004610966565b6102ed565b3480156100c157600080fd5b506100936100d0366004610866565b600180546001600160a01b039384166001600160a01b0319918216811790925560028054939094169281168317909355600060208190527f65d4675a546b3c73e6edb83d0c4efe6c0303339f8ba8dfbefcb0e53a4f11bf0a805485169092179091557f0cc6f6e639e668ee68cd4d7dc107c2f84cafaa016e37174dfbcf2ecd7cfc57dd80548416831790557f6d5961e9929ddb6eca32ac56e5f06e2417f97f632fdc6de1fe0825693162f88580548416831790557f958ea126b57d6cbb118503fe0dfe7ee3227ddd0b445ddd9756b706d623d6aa7e80548416831790557f8f02308d80ef99d8a06474d037a9fde0a96242681145e5a30da848c0aeccebe7805490931690911790915563690ff8a160e01b9052565b3480156101f157600080fd5b506101fa610350565b60405161020a9493929190610b85565b60405180910390f35b34801561021f57600080fd5b5061023361022e366004610843565b6103ee565b604051901515815260200161020a565b34801561024f57600080fd5b50610258610472565b60405161020a929190610bdd565b6100936102743660046109f0565b610508565b610093610287366004610843565b610546565b6102e97f02d947ef7e1bcf8fb01214590fc292969ae4d5e7f45d7813e715cc8b7f8f3eb583836040516020016102d59291909182526001600160a01b0316602082015260400190565b604051602081830303815290604052610588565b5050565b6000826040516020016103009190610b69565b60408051808303601f1901815291815281516020928301206001600160e01b031916600090815291829052902080546001600160a01b0319166001600160a01b0393909316929092179091555050565b606080606080600260009054906101000a90046001600160a01b03166001600160a01b031663690ff8a16040518163ffffffff1660e01b815260040160006040518083038186803b1580156103a457600080fd5b505afa1580156103b8573d6000803e3d6000fd5b505050506040513d6000823e601f3d908101601f191682016040526103e0919081019061089e565b935093509350935090919293565b600254604051638d337b8160e01b81526001600160a01b0383811660048301526000921690638d337b819060240160206040518083038186803b15801561043457600080fd5b505afa158015610448573d6000803e3d6000fd5b505050506040513d601f19601f8201168201806040525081019061046c9190610946565b92915050565b60606000600260009054906101000a90046001600160a01b03166001600160a01b0316638e7ea5b26040518163ffffffff1660e01b815260040160006040518083038186803b1580156104c457600080fd5b505afa1580156104d8573d6000803e3d6000fd5b505050506040513d6000823e601f3d908101601f1916820160405261050091908101906109ab565b915091509091565b6105417fe74f92526f0e4821225878e86d3c7f6ed75a1108786093265c86a02b373c57cb8484846040516020016102d593929190610bff565b505050565b604080516001600160a01b0383166020820152610585917feab06849d7bc153eec39fb39c859939f6e1897fd8b7b2ef9f241bc115f9b57a791016102d5565b50565b6001600160e01b031982166000908152602081905260409020546001600160a01b0316806105fd5760405162461bcd60e51b815260206004820152601860248201527f496d706c656d656e746174696f6e206e6f7420666f756e64000000000000000060448201526064015b60405180910390fd5b6000816001600160a01b0316848460405160200161061c929190610b38565b60408051601f198184030181529082905261063691610b69565b6000604051808303816000865af19150503d8060008114610673576040519150601f19603f3d011682016040523d82523d6000602084013e610678565b606091505b50509050806106b75760405162461bcd60e51b815260206004820152600b60248201526a10d85b1b0819985a5b195960aa1b60448201526064016105f4565b50505050565b600082601f8301126106cd578081fd5b815160206106e26106dd83610c65565b610c34565b80838252828201915082860187848660051b8901011115610701578586fd5b855b8581101561074257815167ffffffffffffffff811115610721578788fd5b61072f8a87838c01016107f8565b8552509284019290840190600101610703565b5090979650505050505050565b600082601f83011261075f578081fd5b8151602061076f6106dd83610c65565b80838252828201915082860187848660051b890101111561078e578586fd5b855b8581101561074257815184529284019290840190600101610790565b600082601f8301126107bc578081fd5b81356107ca6106dd82610c89565b8181528460208386010111156107de578283fd5b816020850160208301379081016020019190915292915050565b600082601f830112610808578081fd5b81516108166106dd82610c89565b81815284602083860101111561082a578283fd5b61083b826020830160208701610cb1565b949350505050565b600060208284031215610854578081fd5b813561085f81610cf3565b9392505050565b60008060408385031215610878578081fd5b823561088381610cf3565b9150602083013561089381610cf3565b809150509250929050565b600080600080608085870312156108b3578182fd5b845167ffffffffffffffff808211156108ca578384fd5b6108d6888389016106bd565b955060208701519150808211156108eb578384fd5b6108f78883890161074f565b9450604087015191508082111561090c578384fd5b610918888389016106bd565b9350606087015191508082111561092d578283fd5b5061093a8782880161074f565b91505092959194509250565b600060208284031215610957578081fd5b8151801515811461085f578182fd5b60008060408385031215610978578182fd5b823567ffffffffffffffff81111561098e578283fd5b61099a858286016107ac565b925050602083013561089381610cf3565b600080604083850312156109bd578182fd5b825167ffffffffffffffff8111156109d3578283fd5b6109df858286016107f8565b925050602083015190509250929050565b600080600060608486031215610a04578283fd5b833567ffffffffffffffff80821115610a1b578485fd5b610a27878388016107ac565b9450602086013593506040860135915080821115610a43578283fd5b50610a50868287016107ac565b9150509250925092565b60008060408385031215610a6c578182fd5b82359150602083013561089381610cf3565b600081518084526020808501808196508360051b81019150828601855b85811015610ac5578284038952610ab3848351610b0c565b98850198935090840190600101610a9b565b5091979650505050505050565b6000815180845260208085019450808401835b83811015610b0157815187529582019590820190600101610ae5565b509495945050505050565b60008151808452610b24816020860160208601610cb1565b601f01601f19169290920160200192915050565b6001600160e01b0319831681528151600090610b5b816004850160208701610cb1565b919091016004019392505050565b60008251610b7b818460208701610cb1565b9190910192915050565b608081526000610b986080830187610a7e565b8281036020840152610baa8187610ad2565b90508281036040840152610bbe8186610a7e565b90508281036060840152610bd28185610ad2565b979650505050505050565b604081526000610bf06040830185610b0c565b90508260208301529392505050565b606081526000610c126060830186610b0c565b8460208401528281036040840152610c2a8185610b0c565b9695505050505050565b604051601f8201601f1916810167ffffffffffffffff81118282101715610c5d57610c5d610cdd565b604052919050565b600067ffffffffffffffff821115610c7f57610c7f610cdd565b5060051b60200190565b600067ffffffffffffffff821115610ca357610ca3610cdd565b50601f01601f191660200190565b60005b83811015610ccc578181015183820152602001610cb4565b838111156106b75750506000910152565b634e487b7160e01b600052604160045260246000fd5b6001600160a01b038116811461058557600080fdfea26469706673582212206bed45d0fc43bbbbb366b9f03ccbbd248191df1345461ce1389b9115ab8e233464736f6c63430008040033",
  "linkReferences": {},
  "deployedLinkReferences": {}
}