{"contracts/v2.sol":{"V2":{"abi":[{"inputs":[],"name":"decrease","outputs":[],"stateMutability":"nonpayable","type":"function"},{"inputs":[],"name":"increase","outputs":[],"stateMutability":"nonpayable","type":"function"},{"inputs":[{"internalType":"uint256","name":"_num","type":"uint256"}],"name":"initialValue","outputs":[],"stateMutability":"nonpayable","type":"function"},{"inputs":[],"name":"number","outputs":[{"internalType":"uint256","name":"","type":"uint256"}],"stateMutability":"view","type":"function"}],"evm":{"bytecode":{"linkReferences":{},"object":"608060405234801561001057600080fd5b5061014f806100206000396000f3fe608060405234801561001057600080fd5b506004361061004c5760003560e01c80638381f58a14610051578063d732d9551461006c578063e8927fbc14610076578063f8d4ca881461007e575b600080fd5b61005a60005481565b60405190815260200160405180910390f35b610074610091565b005b6100746100aa565b61007461008c3660046100bc565b600055565b60016000808282546100a391906100ec565b9091555050565b60016000808282546100a391906100d4565b6000602082840312156100cd578081fd5b5035919050565b600082198211156100e7576100e7610103565b500190565b6000828210156100fe576100fe610103565b500390565b634e487b7160e01b600052601160045260246000fdfea264697066735822122094b11afe0fa0842f1ab4eee422fa355eb7d5a9f758a429cf1d04fd4b7d562eb164736f6c63430008040033","opcodes":"PUSH1 0x80 PUSH1 0x40 MSTORE CALLVALUE DUP1 ISZERO PUSH2 0x10 JUMPI PUSH1 0x0 DUP1 REVERT JUMPDEST POP PUSH2 0x14F DUP1 PUSH2 0x20 PUSH1 0x0 CODECOPY PUSH1 0x0 RETURN INVALID PUSH1 0x80 PUSH1 0x40 MSTORE CALLVALUE DUP1 ISZERO PUSH2 0x10 JUMPI PUSH1 0x0 DUP1 REVERT JUMPDEST POP PUSH1 0x4 CALLDATASIZE LT PUSH2 0x4C JUMPI PUSH1 0x0 CALLDATALOAD PUSH1 0xE0 SHR DUP1 PUSH4 0x8381F58A EQ PUSH2 0x51 JUMPI DUP1 PUSH4 0xD732D955 EQ PUSH2 0x6C JUMPI DUP1 PUSH4 0xE8927FBC EQ PUSH2 0x76 JUMPI DUP1 PUSH4 0xF8D4CA88 EQ PUSH2 0x7E JUMPI JUMPDEST PUSH1 0x0 DUP1 REVERT JUMPDEST PUSH2 0x5A PUSH1 0x0 SLOAD DUP2 JUMP JUMPDEST PUSH1 0x40 MLOAD SWAP1 DUP2 MSTORE PUSH1 0x20 ADD PUSH1 0x40 MLOAD DUP1 SWAP2 SUB SWAP1 RETURN JUMPDEST PUSH2 0x74 PUSH2 0x91 JUMP JUMPDEST STOP JUMPDEST PUSH2 0x74 PUSH2 0xAA JUMP JUMPDEST PUSH2 0x74 PUSH2 0x8C CALLDATASIZE PUSH1 0x4 PUSH2 0xBC JUMP JUMPDEST PUSH1 0x0 SSTORE JUMP JUMPDEST PUSH1 0x1 PUSH1 0x0 DUP1 DUP3 DUP3 SLOAD PUSH2 0xA3 SWAP2 SWAP1 PUSH2 0xEC JUMP JUMPDEST SWAP1 SWAP2 SSTORE POP POP JUMP JUMPDEST PUSH1 0x1 PUSH1 0x0 DUP1 DUP3 DUP3 SLOAD PUSH2 0xA3 SWAP2 SWAP1 PUSH2 0xD4 JUMP JUMPDEST PUSH1 0x0 PUSH1 0x20 DUP3 DUP5 SUB SLT ISZERO PUSH2 0xCD JUMPI DUP1 DUP2 REVERT JUMPDEST POP CALLDATALOAD SWAP2 SWAP1 POP JUMP JUMPDEST PUSH1 0x0 DUP3 NOT DUP3 GT ISZERO PUSH2 0xE7 JUMPI PUSH2 0xE7 PUSH2 0x103 JUMP JUMPDEST POP ADD SWAP1 JUMP JUMPDEST PUSH1 0x0 DUP3 DUP3 LT ISZERO PUSH2 0xFE JUMPI PUSH2 0xFE PUSH2 0x103 JUMP JUMPDEST POP SUB SWAP1 JUMP JUMPDEST PUSH4 0x4E487B71 PUSH1 0xE0 SHL PUSH1 0x0 MSTORE PUSH1 0x11 PUSH1 0x4 MSTORE PUSH1 0x24 PUSH1 0x0 REVERT INVALID LOG2 PUSH5 0x6970667358 0x22 SLT KECCAK256 SWAP5 0xB1 BYTE INVALID 0xF LOG0 DUP5 0x2F BYTE 0xB4 0xEE 0xE4 0x22 STATICCALL CALLDATALOAD 0x5E 0xB7 0xD5 0xA9 0xF7 PC LOG4 0x29 0xCF SAR DIV REVERT 0x4B PUSH30 0x562EB164736F6C6343000804003300000000000000000000000000000000 "},"methodIdentifiers":{"decrease()":"d732d955","increase()":"e8927fbc","initialValue(uint256)":"f8d4ca88","number()":"8381f58a"}},"storageLayout":{"storage":[{"astId":4231,"contract":"contracts/v2.sol:V2","label":"number","offset":0,"slot":"0","type":"t_uint256"}],"types":{"t_uint256":{"encoding":"inplace","label":"uint256","numberOfBytes":"32"}}}}}}