{"contracts/Proxy.sol":{"Proxy":{"abi":[{"anonymous":false,"inputs":[{"indexed":false,"internalType":"bytes4","name":"sig","type":"bytes4"}],"name":"FallbackCalled","type":"event"},{"inputs":[{"internalType":"string","name":"name","type":"string"},{"internalType":"uint256","name":"candidateId","type":"uint256"},{"internalType":"string","name":"party","type":"string"}],"name":"addCandidates","outputs":[],"stateMutability":"payable","type":"function"},{"inputs":[{"internalType":"address payable","name":"_to","type":"address"}],"name":"callTransfer","outputs":[],"stateMutability":"payable","type":"function"},{"inputs":[{"internalType":"string","name":"tokenURI","type":"string"},{"internalType":"uint256","name":"price","type":"uint256"}],"name":"createNft","outputs":[],"stateMutability":"payable","type":"function"},{"inputs":[{"internalType":"uint256","name":"tokenId","type":"uint256"}],"name":"executeNftSale","outputs":[],"stateMutability":"payable","type":"function"},{"inputs":[],"name":"getListCandidates","outputs":[{"internalType":"string[]","name":"candidateNames","type":"string[]"},{"internalType":"uint256[]","name":"voteCounts","type":"uint256[]"}],"stateMutability":"view","type":"function"},{"inputs":[],"name":"getWinner","outputs":[{"internalType":"string","name":"winnerName","type":"string"},{"internalType":"uint256","name":"winnerVoteCount","type":"uint256"}],"stateMutability":"view","type":"function"},{"inputs":[{"internalType":"address","name":"_transferAddress","type":"address"},{"internalType":"address","name":"_nftAddress","type":"address"},{"internalType":"address","name":"_voteAddress","type":"address"}],"name":"starting","outputs":[],"stateMutability":"nonpayable","type":"function"},{"inputs":[{"internalType":"string","name":"_selector","type":"string"},{"internalType":"address","name":"_newImplementation","type":"address"}],"name":"updateProxy","outputs":[],"stateMutability":"nonpayable","type":"function"},{"inputs":[{"internalType":"uint256","name":"candidateId","type":"uint256"},{"internalType":"address","name":"voter","type":"address"}],"name":"vote","outputs":[],"stateMutability":"payable","type":"function"}],"evm":{"bytecode":{"linkReferences":{},"object":"608060405234801561001057600080fd5b50610d2e806100206000396000f3fe6080604052600436106100865760003560e01c8063573f301a11610059578063573f301a14610263578063690ff8a1146102765780638e7ea5b2146102a2578063dac8fa2a146102c5578063eec990f2146102d857600080fd5b806302d947ef1461008b5780631ea3115a146100a05780633e73720c146102305780634b9ab85014610243575b600080fd5b61009e610099366004610a97565b6102eb565b005b3480156100ac57600080fd5b5061009e6100bb36600461081e565b600180546001600160a01b039485166001600160a01b03199182168117909255600280549486169482168517905560038054939095169281168317909455600060208190527f65d4675a546b3c73e6edb83d0c4efe6c0303339f8ba8dfbefcb0e53a4f11bf0a805486169092179091557f8a03cc9af05d4ad2341a13a76f5b6d3315767daa521a8f31ef6d49f12a6bacb480548516841790557f8dbc45065b65f58aa0959443fc63f3c83d8ed011c85c5789ba5e55c59a398152805485169093179092557f0cc6f6e639e668ee68cd4d7dc107c2f84cafaa016e37174dfbcf2ecd7cfc57dd80548416821790557f6d5961e9929ddb6eca32ac56e5f06e2417f97f632fdc6de1fe0825693162f88580548416821790557f958ea126b57d6cbb118503fe0dfe7ee3227ddd0b445ddd9756b706d623d6aa7e805484168217905563473f52d960e11b9091527f8f02308d80ef99d8a06474d037a9fde0a96242681145e5a30da848c0aeccebe78054909216179055565b61009e61023e36600461098d565b61034c565b34801561024f57600080fd5b5061009e61025e36600461093d565b610383565b61009e610271366004610a7f565b6103e6565b34801561028257600080fd5b5061028b610420565b604051610299929190610b34565b60405180910390f35b3480156102ae57600080fd5b506102b76104b5565b604051610299929190610bcd565b61009e6102d3366004610a15565b610543565b61009e6102e63660046107fb565b610581565b6103487f02d947ef7e1bcf8fb01214590fc292969ae4d5e7f45d7813e715cc8b7f8f3eb583836040516020016103349291909182526001600160a01b0316602082015260400190565b6040516020818303038152906040526105c0565b5050565b6103487f3e73720c57fbc13ae6680e44563b96bf0bb54149de92c72c0f51b8710799b67d8383604051602001610334929190610bcd565b6000826040516020016103969190610b18565b60408051808303601f1901815291815281516020928301206001600160e01b031916600090815291829052902080546001600160a01b0319166001600160a01b0393909316929092179091555050565b61041d7f573f301af698e5c99a6d3226744ecc685a2128473848835ec18dff13ef6d85438260405160200161033491815260200190565b50565b606080600360009054906101000a90046001600160a01b03166001600160a01b031663690ff8a16040518163ffffffff1660e01b815260040160006040518083038186803b15801561047157600080fd5b505afa158015610485573d6000803e3d6000fd5b505050506040513d6000823e601f3d908101601f191682016040526104ad9190810190610868565b915091509091565b60606000600360009054906101000a90046001600160a01b03166001600160a01b0316638e7ea5b26040518163ffffffff1660e01b815260040160006040518083038186803b15801561050757600080fd5b505afa15801561051b573d6000803e3d6000fd5b505050506040513d6000823e601f3d908101601f191682016040526104ad91908101906109d0565b61057c7fe74f92526f0e4821225878e86d3c7f6ed75a1108786093265c86a02b373c57cb84848460405160200161033493929190610bef565b505050565b604080516001600160a01b038316602082015261041d917feab06849d7bc153eec39fb39c859939f6e1897fd8b7b2ef9f241bc115f9b57a79101610334565b6001600160e01b031982166000908152602081905260409020546001600160a01b0316806106355760405162461bcd60e51b815260206004820152601860248201527f496d706c656d656e746174696f6e206e6f7420666f756e64000000000000000060448201526064015b60405180910390fd5b6000816001600160a01b03168484604051602001610654929190610ae7565b60408051601f198184030181529082905261066e91610b18565b6000604051808303816000865af19150503d80600081146106ab576040519150601f19603f3d011682016040523d82523d6000602084013e6106b0565b606091505b50509050806106ef5760405162461bcd60e51b815260206004820152600b60248201526a10d85b1b0819985a5b195960aa1b604482015260640161062c565b50505050565b600082601f830112610705578081fd5b8151602061071a61071583610c55565b610c24565b80838252828201915082860187848660051b8901011115610739578586fd5b855b858110156107575781518452928401929084019060010161073b565b5090979650505050505050565b600082601f830112610774578081fd5b813561078261071582610c79565b818152846020838601011115610796578283fd5b816020850160208301379081016020019190915292915050565b600082601f8301126107c0578081fd5b81516107ce61071582610c79565b8181528460208386010111156107e2578283fd5b6107f3826020830160208701610ca1565b949350505050565b60006020828403121561080c578081fd5b813561081781610ce3565b9392505050565b600080600060608486031215610832578182fd5b833561083d81610ce3565b9250602084013561084d81610ce3565b9150604084013561085d81610ce3565b809150509250925092565b6000806040838503121561087a578182fd5b825167ffffffffffffffff80821115610891578384fd5b818501915085601f8301126108a4578384fd5b815160206108b461071583610c55565b8083825282820191508286018a848660051b89010111156108d3578889fd5b885b8581101561090c578151878111156108eb578a8bfd5b6108f98d87838c01016107b0565b85525092840192908401906001016108d5565b505091880151919650909350505080821115610926578283fd5b50610933858286016106f5565b9150509250929050565b6000806040838503121561094f578182fd5b823567ffffffffffffffff811115610965578283fd5b61097185828601610764565b925050602083013561098281610ce3565b809150509250929050565b6000806040838503121561099f578182fd5b823567ffffffffffffffff8111156109b5578283fd5b6109c185828601610764565b95602094909401359450505050565b600080604083850312156109e2578182fd5b825167ffffffffffffffff8111156109f8578283fd5b610a04858286016107b0565b925050602083015190509250929050565b600080600060608486031215610a29578283fd5b833567ffffffffffffffff80821115610a40578485fd5b610a4c87838801610764565b9450602086013593506040860135915080821115610a68578283fd5b50610a7586828701610764565b9150509250925092565b600060208284031215610a90578081fd5b5035919050565b60008060408385031215610aa9578182fd5b82359150602083013561098281610ce3565b60008151808452610ad3816020860160208601610ca1565b601f01601f19169290920160200192915050565b6001600160e01b0319831681528151600090610b0a816004850160208701610ca1565b919091016004019392505050565b60008251610b2a818460208701610ca1565b9190910192915050565b6000604082016040835280855180835260608501915060608160051b86010192506020808801855b83811015610b8a57605f19888703018552610b78868351610abb565b95509382019390820190600101610b5c565b505085840381870152865180855287820194820193509150845b82811015610bc057845184529381019392810192600101610ba4565b5091979650505050505050565b604081526000610be06040830185610abb565b90508260208301529392505050565b606081526000610c026060830186610abb565b8460208401528281036040840152610c1a8185610abb565b9695505050505050565b604051601f8201601f1916810167ffffffffffffffff81118282101715610c4d57610c4d610ccd565b604052919050565b600067ffffffffffffffff821115610c6f57610c6f610ccd565b5060051b60200190565b600067ffffffffffffffff821115610c9357610c93610ccd565b50601f01601f191660200190565b60005b83811015610cbc578181015183820152602001610ca4565b838111156106ef5750506000910152565b634e487b7160e01b600052604160045260246000fd5b6001600160a01b038116811461041d57600080fdfea2646970667358221220860c80bdbb71c8a42f95850fa362963517742b8f80daf38f54e157064e1984d764736f6c63430008040033","opcodes":"PUSH1 0x80 PUSH1 0x40 MSTORE CALLVALUE DUP1 ISZERO PUSH2 0x10 JUMPI PUSH1 0x0 DUP1 REVERT JUMPDEST POP PUSH2 0xD2E DUP1 PUSH2 0x20 PUSH1 0x0 CODECOPY PUSH1 0x0 RETURN INVALID PUSH1 0x80 PUSH1 0x40 MSTORE PUSH1 0x4 CALLDATASIZE LT PUSH2 0x86 JUMPI PUSH1 0x0 CALLDATALOAD PUSH1 0xE0 SHR DUP1 PUSH4 0x573F301A GT PUSH2 0x59 JUMPI DUP1 PUSH4 0x573F301A EQ PUSH2 0x263 JUMPI DUP1 PUSH4 0x690FF8A1 EQ PUSH2 0x276 JUMPI DUP1 PUSH4 0x8E7EA5B2 EQ PUSH2 0x2A2 JUMPI DUP1 PUSH4 0xDAC8FA2A EQ PUSH2 0x2C5 JUMPI DUP1 PUSH4 0xEEC990F2 EQ PUSH2 0x2D8 JUMPI PUSH1 0x0 DUP1 REVERT JUMPDEST DUP1 PUSH4 0x2D947EF EQ PUSH2 0x8B JUMPI DUP1 PUSH4 0x1EA3115A EQ PUSH2 0xA0 JUMPI DUP1 PUSH4 0x3E73720C EQ PUSH2 0x230 JUMPI DUP1 PUSH4 0x4B9AB850 EQ PUSH2 0x243 JUMPI JUMPDEST PUSH1 0x0 DUP1 REVERT JUMPDEST PUSH2 0x9E PUSH2 0x99 CALLDATASIZE PUSH1 0x4 PUSH2 0xA97 JUMP JUMPDEST PUSH2 0x2EB JUMP JUMPDEST STOP JUMPDEST CALLVALUE DUP1 ISZERO PUSH2 0xAC JUMPI PUSH1 0x0 DUP1 REVERT JUMPDEST POP PUSH2 0x9E PUSH2 0xBB CALLDATASIZE PUSH1 0x4 PUSH2 0x81E JUMP JUMPDEST PUSH1 0x1 DUP1 SLOAD PUSH1 0x1 PUSH1 0x1 PUSH1 0xA0 SHL SUB SWAP5 DUP6 AND PUSH1 0x1 PUSH1 0x1 PUSH1 0xA0 SHL SUB NOT SWAP2 DUP3 AND DUP2 OR SWAP1 SWAP3 SSTORE PUSH1 0x2 DUP1 SLOAD SWAP5 DUP7 AND SWAP5 DUP3 AND DUP6 OR SWAP1 SSTORE PUSH1 0x3 DUP1 SLOAD SWAP4 SWAP1 SWAP6 AND SWAP3 DUP2 AND DUP4 OR SWAP1 SWAP5 SSTORE PUSH1 0x0 PUSH1 0x20 DUP2 SWAP1 MSTORE PUSH32 0x65D4675A546B3C73E6EDB83D0C4EFE6C0303339F8BA8DFBEFCB0E53A4F11BF0A DUP1 SLOAD DUP7 AND SWAP1 SWAP3 OR SWAP1 SWAP2 SSTORE PUSH32 0x8A03CC9AF05D4AD2341A13A76F5B6D3315767DAA521A8F31EF6D49F12A6BACB4 DUP1 SLOAD DUP6 AND DUP5 OR SWAP1 SSTORE PUSH32 0x8DBC45065B65F58AA0959443FC63F3C83D8ED011C85C5789BA5E55C59A398152 DUP1 SLOAD DUP6 AND SWAP1 SWAP4 OR SWAP1 SWAP3 SSTORE PUSH32 0xCC6F6E639E668EE68CD4D7DC107C2F84CAFAA016E37174DFBCF2ECD7CFC57DD DUP1 SLOAD DUP5 AND DUP3 OR SWAP1 SSTORE PUSH32 0x6D5961E9929DDB6ECA32AC56E5F06E2417F97F632FDC6DE1FE0825693162F885 DUP1 SLOAD DUP5 AND DUP3 OR SWAP1 SSTORE PUSH32 0x958EA126B57D6CBB118503FE0DFE7EE3227DDD0B445DDD9756B706D623D6AA7E DUP1 SLOAD DUP5 AND DUP3 OR SWAP1 SSTORE PUSH4 0x473F52D9 PUSH1 0xE1 SHL SWAP1 SWAP2 MSTORE PUSH32 0x8F02308D80EF99D8A06474D037A9FDE0A96242681145E5A30DA848C0AECCEBE7 DUP1 SLOAD SWAP1 SWAP3 AND OR SWAP1 SSTORE JUMP JUMPDEST PUSH2 0x9E PUSH2 0x23E CALLDATASIZE PUSH1 0x4 PUSH2 0x98D JUMP JUMPDEST PUSH2 0x34C JUMP JUMPDEST CALLVALUE DUP1 ISZERO PUSH2 0x24F JUMPI PUSH1 0x0 DUP1 REVERT JUMPDEST POP PUSH2 0x9E PUSH2 0x25E CALLDATASIZE PUSH1 0x4 PUSH2 0x93D JUMP JUMPDEST PUSH2 0x383 JUMP JUMPDEST PUSH2 0x9E PUSH2 0x271 CALLDATASIZE PUSH1 0x4 PUSH2 0xA7F JUMP JUMPDEST PUSH2 0x3E6 JUMP JUMPDEST CALLVALUE DUP1 ISZERO PUSH2 0x282 JUMPI PUSH1 0x0 DUP1 REVERT JUMPDEST POP PUSH2 0x28B PUSH2 0x420 JUMP JUMPDEST PUSH1 0x40 MLOAD PUSH2 0x299 SWAP3 SWAP2 SWAP1 PUSH2 0xB34 JUMP JUMPDEST PUSH1 0x40 MLOAD DUP1 SWAP2 SUB SWAP1 RETURN JUMPDEST CALLVALUE DUP1 ISZERO PUSH2 0x2AE JUMPI PUSH1 0x0 DUP1 REVERT JUMPDEST POP PUSH2 0x2B7 PUSH2 0x4B5 JUMP JUMPDEST PUSH1 0x40 MLOAD PUSH2 0x299 SWAP3 SWAP2 SWAP1 PUSH2 0xBCD JUMP JUMPDEST PUSH2 0x9E PUSH2 0x2D3 CALLDATASIZE PUSH1 0x4 PUSH2 0xA15 JUMP JUMPDEST PUSH2 0x543 JUMP JUMPDEST PUSH2 0x9E PUSH2 0x2E6 CALLDATASIZE PUSH1 0x4 PUSH2 0x7FB JUMP JUMPDEST PUSH2 0x581 JUMP JUMPDEST PUSH2 0x348 PUSH32 0x2D947EF7E1BCF8FB01214590FC292969AE4D5E7F45D7813E715CC8B7F8F3EB5 DUP4 DUP4 PUSH1 0x40 MLOAD PUSH1 0x20 ADD PUSH2 0x334 SWAP3 SWAP2 SWAP1 SWAP2 DUP3 MSTORE PUSH1 0x1 PUSH1 0x1 PUSH1 0xA0 SHL SUB AND PUSH1 0x20 DUP3 ADD MSTORE PUSH1 0x40 ADD SWAP1 JUMP JUMPDEST PUSH1 0x40 MLOAD PUSH1 0x20 DUP2 DUP4 SUB SUB DUP2 MSTORE SWAP1 PUSH1 0x40 MSTORE PUSH2 0x5C0 JUMP JUMPDEST POP POP JUMP JUMPDEST PUSH2 0x348 PUSH32 0x3E73720C57FBC13AE6680E44563B96BF0BB54149DE92C72C0F51B8710799B67D DUP4 DUP4 PUSH1 0x40 MLOAD PUSH1 0x20 ADD PUSH2 0x334 SWAP3 SWAP2 SWAP1 PUSH2 0xBCD JUMP JUMPDEST PUSH1 0x0 DUP3 PUSH1 0x40 MLOAD PUSH1 0x20 ADD PUSH2 0x396 SWAP2 SWAP1 PUSH2 0xB18 JUMP JUMPDEST PUSH1 0x40 DUP1 MLOAD DUP1 DUP4 SUB PUSH1 0x1F NOT ADD DUP2 MSTORE SWAP2 DUP2 MSTORE DUP2 MLOAD PUSH1 0x20 SWAP3 DUP4 ADD KECCAK256 PUSH1 0x1 PUSH1 0x1 PUSH1 0xE0 SHL SUB NOT AND PUSH1 0x0 SWAP1 DUP2 MSTORE SWAP2 DUP3 SWAP1 MSTORE SWAP1 KECCAK256 DUP1 SLOAD PUSH1 0x1 PUSH1 0x1 PUSH1 0xA0 SHL SUB NOT AND PUSH1 0x1 PUSH1 0x1 PUSH1 0xA0 SHL SUB SWAP4 SWAP1 SWAP4 AND SWAP3 SWAP1 SWAP3 OR SWAP1 SWAP2 SSTORE POP POP JUMP JUMPDEST PUSH2 0x41D PUSH32 0x573F301AF698E5C99A6D3226744ECC685A2128473848835EC18DFF13EF6D8543 DUP3 PUSH1 0x40 MLOAD PUSH1 0x20 ADD PUSH2 0x334 SWAP2 DUP2 MSTORE PUSH1 0x20 ADD SWAP1 JUMP JUMPDEST POP JUMP JUMPDEST PUSH1 0x60 DUP1 PUSH1 0x3 PUSH1 0x0 SWAP1 SLOAD SWAP1 PUSH2 0x100 EXP SWAP1 DIV PUSH1 0x1 PUSH1 0x1 PUSH1 0xA0 SHL SUB AND PUSH1 0x1 PUSH1 0x1 PUSH1 0xA0 SHL SUB AND PUSH4 0x690FF8A1 PUSH1 0x40 MLOAD DUP2 PUSH4 0xFFFFFFFF AND PUSH1 0xE0 SHL DUP2 MSTORE PUSH1 0x4 ADD PUSH1 0x0 PUSH1 0x40 MLOAD DUP1 DUP4 SUB DUP2 DUP7 DUP1 EXTCODESIZE ISZERO DUP1 ISZERO PUSH2 0x471 JUMPI PUSH1 0x0 DUP1 REVERT JUMPDEST POP GAS STATICCALL ISZERO DUP1 ISZERO PUSH2 0x485 JUMPI RETURNDATASIZE PUSH1 0x0 DUP1 RETURNDATACOPY RETURNDATASIZE PUSH1 0x0 REVERT JUMPDEST POP POP POP POP PUSH1 0x40 MLOAD RETURNDATASIZE PUSH1 0x0 DUP3 RETURNDATACOPY PUSH1 0x1F RETURNDATASIZE SWAP1 DUP2 ADD PUSH1 0x1F NOT AND DUP3 ADD PUSH1 0x40 MSTORE PUSH2 0x4AD SWAP2 SWAP1 DUP2 ADD SWAP1 PUSH2 0x868 JUMP JUMPDEST SWAP2 POP SWAP2 POP SWAP1 SWAP2 JUMP JUMPDEST PUSH1 0x60 PUSH1 0x0 PUSH1 0x3 PUSH1 0x0 SWAP1 SLOAD SWAP1 PUSH2 0x100 EXP SWAP1 DIV PUSH1 0x1 PUSH1 0x1 PUSH1 0xA0 SHL SUB AND PUSH1 0x1 PUSH1 0x1 PUSH1 0xA0 SHL SUB AND PUSH4 0x8E7EA5B2 PUSH1 0x40 MLOAD DUP2 PUSH4 0xFFFFFFFF AND PUSH1 0xE0 SHL DUP2 MSTORE PUSH1 0x4 ADD PUSH1 0x0 PUSH1 0x40 MLOAD DUP1 DUP4 SUB DUP2 DUP7 DUP1 EXTCODESIZE ISZERO DUP1 ISZERO PUSH2 0x507 JUMPI PUSH1 0x0 DUP1 REVERT JUMPDEST POP GAS STATICCALL ISZERO DUP1 ISZERO PUSH2 0x51B JUMPI RETURNDATASIZE PUSH1 0x0 DUP1 RETURNDATACOPY RETURNDATASIZE PUSH1 0x0 REVERT JUMPDEST POP POP POP POP PUSH1 0x40 MLOAD RETURNDATASIZE PUSH1 0x0 DUP3 RETURNDATACOPY PUSH1 0x1F RETURNDATASIZE SWAP1 DUP2 ADD PUSH1 0x1F NOT AND DUP3 ADD PUSH1 0x40 MSTORE PUSH2 0x4AD SWAP2 SWAP1 DUP2 ADD SWAP1 PUSH2 0x9D0 JUMP JUMPDEST PUSH2 0x57C PUSH32 0xE74F92526F0E4821225878E86D3C7F6ED75A1108786093265C86A02B373C57CB DUP5 DUP5 DUP5 PUSH1 0x40 MLOAD PUSH1 0x20 ADD PUSH2 0x334 SWAP4 SWAP3 SWAP2 SWAP1 PUSH2 0xBEF JUMP JUMPDEST POP POP POP JUMP JUMPDEST PUSH1 0x40 DUP1 MLOAD PUSH1 0x1 PUSH1 0x1 PUSH1 0xA0 SHL SUB DUP4 AND PUSH1 0x20 DUP3 ADD MSTORE PUSH2 0x41D SWAP2 PUSH32 0xEAB06849D7BC153EEC39FB39C859939F6E1897FD8B7B2EF9F241BC115F9B57A7 SWAP2 ADD PUSH2 0x334 JUMP JUMPDEST PUSH1 0x1 PUSH1 0x1 PUSH1 0xE0 SHL SUB NOT DUP3 AND PUSH1 0x0 SWAP1 DUP2 MSTORE PUSH1 0x20 DUP2 SWAP1 MSTORE PUSH1 0x40 SWAP1 KECCAK256 SLOAD PUSH1 0x1 PUSH1 0x1 PUSH1 0xA0 SHL SUB AND DUP1 PUSH2 0x635 JUMPI PUSH1 0x40 MLOAD PUSH3 0x461BCD PUSH1 0xE5 SHL DUP2 MSTORE PUSH1 0x20 PUSH1 0x4 DUP3 ADD MSTORE PUSH1 0x18 PUSH1 0x24 DUP3 ADD MSTORE PUSH32 0x496D706C656D656E746174696F6E206E6F7420666F756E640000000000000000 PUSH1 0x44 DUP3 ADD MSTORE PUSH1 0x64 ADD JUMPDEST PUSH1 0x40 MLOAD DUP1 SWAP2 SUB SWAP1 REVERT JUMPDEST PUSH1 0x0 DUP2 PUSH1 0x1 PUSH1 0x1 PUSH1 0xA0 SHL SUB AND DUP5 DUP5 PUSH1 0x40 MLOAD PUSH1 0x20 ADD PUSH2 0x654 SWAP3 SWAP2 SWAP1 PUSH2 0xAE7 JUMP JUMPDEST PUSH1 0x40 DUP1 MLOAD PUSH1 0x1F NOT DUP2 DUP5 SUB ADD DUP2 MSTORE SWAP1 DUP3 SWAP1 MSTORE PUSH2 0x66E SWAP2 PUSH2 0xB18 JUMP JUMPDEST PUSH1 0x0 PUSH1 0x40 MLOAD DUP1 DUP4 SUB DUP2 PUSH1 0x0 DUP7 GAS CALL SWAP2 POP POP RETURNDATASIZE DUP1 PUSH1 0x0 DUP2 EQ PUSH2 0x6AB JUMPI PUSH1 0x40 MLOAD SWAP2 POP PUSH1 0x1F NOT PUSH1 0x3F RETURNDATASIZE ADD AND DUP3 ADD PUSH1 0x40 MSTORE RETURNDATASIZE DUP3 MSTORE RETURNDATASIZE PUSH1 0x0 PUSH1 0x20 DUP5 ADD RETURNDATACOPY PUSH2 0x6B0 JUMP JUMPDEST PUSH1 0x60 SWAP2 POP JUMPDEST POP POP SWAP1 POP DUP1 PUSH2 0x6EF JUMPI PUSH1 0x40 MLOAD PUSH3 0x461BCD PUSH1 0xE5 SHL DUP2 MSTORE PUSH1 0x20 PUSH1 0x4 DUP3 ADD MSTORE PUSH1 0xB PUSH1 0x24 DUP3 ADD MSTORE PUSH11 0x10D85B1B0819985A5B1959 PUSH1 0xAA SHL PUSH1 0x44 DUP3 ADD MSTORE PUSH1 0x64 ADD PUSH2 0x62C JUMP JUMPDEST POP POP POP POP JUMP JUMPDEST PUSH1 0x0 DUP3 PUSH1 0x1F DUP4 ADD SLT PUSH2 0x705 JUMPI DUP1 DUP2 REVERT JUMPDEST DUP2 MLOAD PUSH1 0x20 PUSH2 0x71A PUSH2 0x715 DUP4 PUSH2 0xC55 JUMP JUMPDEST PUSH2 0xC24 JUMP JUMPDEST DUP1 DUP4 DUP3 MSTORE DUP3 DUP3 ADD SWAP2 POP DUP3 DUP7 ADD DUP8 DUP5 DUP7 PUSH1 0x5 SHL DUP10 ADD ADD GT ISZERO PUSH2 0x739 JUMPI DUP6 DUP7 REVERT JUMPDEST DUP6 JUMPDEST DUP6 DUP2 LT ISZERO PUSH2 0x757 JUMPI DUP2 MLOAD DUP5 MSTORE SWAP3 DUP5 ADD SWAP3 SWAP1 DUP5 ADD SWAP1 PUSH1 0x1 ADD PUSH2 0x73B JUMP JUMPDEST POP SWAP1 SWAP8 SWAP7 POP POP POP POP POP POP POP JUMP JUMPDEST PUSH1 0x0 DUP3 PUSH1 0x1F DUP4 ADD SLT PUSH2 0x774 JUMPI DUP1 DUP2 REVERT JUMPDEST DUP2 CALLDATALOAD PUSH2 0x782 PUSH2 0x715 DUP3 PUSH2 0xC79 JUMP JUMPDEST DUP2 DUP2 MSTORE DUP5 PUSH1 0x20 DUP4 DUP7 ADD ADD GT ISZERO PUSH2 0x796 JUMPI DUP3 DUP4 REVERT JUMPDEST DUP2 PUSH1 0x20 DUP6 ADD PUSH1 0x20 DUP4 ADD CALLDATACOPY SWAP1 DUP2 ADD PUSH1 0x20 ADD SWAP2 SWAP1 SWAP2 MSTORE SWAP3 SWAP2 POP POP JUMP JUMPDEST PUSH1 0x0 DUP3 PUSH1 0x1F DUP4 ADD SLT PUSH2 0x7C0 JUMPI DUP1 DUP2 REVERT JUMPDEST DUP2 MLOAD PUSH2 0x7CE PUSH2 0x715 DUP3 PUSH2 0xC79 JUMP JUMPDEST DUP2 DUP2 MSTORE DUP5 PUSH1 0x20 DUP4 DUP7 ADD ADD GT ISZERO PUSH2 0x7E2 JUMPI DUP3 DUP4 REVERT JUMPDEST PUSH2 0x7F3 DUP3 PUSH1 0x20 DUP4 ADD PUSH1 0x20 DUP8 ADD PUSH2 0xCA1 JUMP JUMPDEST SWAP5 SWAP4 POP POP POP POP JUMP JUMPDEST PUSH1 0x0 PUSH1 0x20 DUP3 DUP5 SUB SLT ISZERO PUSH2 0x80C JUMPI DUP1 DUP2 REVERT JUMPDEST DUP2 CALLDATALOAD PUSH2 0x817 DUP2 PUSH2 0xCE3 JUMP JUMPDEST SWAP4 SWAP3 POP POP POP JUMP JUMPDEST PUSH1 0x0 DUP1 PUSH1 0x0 PUSH1 0x60 DUP5 DUP7 SUB SLT ISZERO PUSH2 0x832 JUMPI DUP2 DUP3 REVERT JUMPDEST DUP4 CALLDATALOAD PUSH2 0x83D DUP2 PUSH2 0xCE3 JUMP JUMPDEST SWAP3 POP PUSH1 0x20 DUP5 ADD CALLDATALOAD PUSH2 0x84D DUP2 PUSH2 0xCE3 JUMP JUMPDEST SWAP2 POP PUSH1 0x40 DUP5 ADD CALLDATALOAD PUSH2 0x85D DUP2 PUSH2 0xCE3 JUMP JUMPDEST DUP1 SWAP2 POP POP SWAP3 POP SWAP3 POP SWAP3 JUMP JUMPDEST PUSH1 0x0 DUP1 PUSH1 0x40 DUP4 DUP6 SUB SLT ISZERO PUSH2 0x87A JUMPI DUP2 DUP3 REVERT JUMPDEST DUP3 MLOAD PUSH8 0xFFFFFFFFFFFFFFFF DUP1 DUP3 GT ISZERO PUSH2 0x891 JUMPI DUP4 DUP5 REVERT JUMPDEST DUP2 DUP6 ADD SWAP2 POP DUP6 PUSH1 0x1F DUP4 ADD SLT PUSH2 0x8A4 JUMPI DUP4 DUP5 REVERT JUMPDEST DUP2 MLOAD PUSH1 0x20 PUSH2 0x8B4 PUSH2 0x715 DUP4 PUSH2 0xC55 JUMP JUMPDEST DUP1 DUP4 DUP3 MSTORE DUP3 DUP3 ADD SWAP2 POP DUP3 DUP7 ADD DUP11 DUP5 DUP7 PUSH1 0x5 SHL DUP10 ADD ADD GT ISZERO PUSH2 0x8D3 JUMPI DUP9 DUP10 REVERT JUMPDEST DUP9 JUMPDEST DUP6 DUP2 LT ISZERO PUSH2 0x90C JUMPI DUP2 MLOAD DUP8 DUP2 GT ISZERO PUSH2 0x8EB JUMPI DUP11 DUP12 REVERT JUMPDEST PUSH2 0x8F9 DUP14 DUP8 DUP4 DUP13 ADD ADD PUSH2 0x7B0 JUMP JUMPDEST DUP6 MSTORE POP SWAP3 DUP5 ADD SWAP3 SWAP1 DUP5 ADD SWAP1 PUSH1 0x1 ADD PUSH2 0x8D5 JUMP JUMPDEST POP POP SWAP2 DUP9 ADD MLOAD SWAP2 SWAP7 POP SWAP1 SWAP4 POP POP POP DUP1 DUP3 GT ISZERO PUSH2 0x926 JUMPI DUP3 DUP4 REVERT JUMPDEST POP PUSH2 0x933 DUP6 DUP3 DUP7 ADD PUSH2 0x6F5 JUMP JUMPDEST SWAP2 POP POP SWAP3 POP SWAP3 SWAP1 POP JUMP JUMPDEST PUSH1 0x0 DUP1 PUSH1 0x40 DUP4 DUP6 SUB SLT ISZERO PUSH2 0x94F JUMPI DUP2 DUP3 REVERT JUMPDEST DUP3 CALLDATALOAD PUSH8 0xFFFFFFFFFFFFFFFF DUP2 GT ISZERO PUSH2 0x965 JUMPI DUP3 DUP4 REVERT JUMPDEST PUSH2 0x971 DUP6 DUP3 DUP7 ADD PUSH2 0x764 JUMP JUMPDEST SWAP3 POP POP PUSH1 0x20 DUP4 ADD CALLDATALOAD PUSH2 0x982 DUP2 PUSH2 0xCE3 JUMP JUMPDEST DUP1 SWAP2 POP POP SWAP3 POP SWAP3 SWAP1 POP JUMP JUMPDEST PUSH1 0x0 DUP1 PUSH1 0x40 DUP4 DUP6 SUB SLT ISZERO PUSH2 0x99F JUMPI DUP2 DUP3 REVERT JUMPDEST DUP3 CALLDATALOAD PUSH8 0xFFFFFFFFFFFFFFFF DUP2 GT ISZERO PUSH2 0x9B5 JUMPI DUP3 DUP4 REVERT JUMPDEST PUSH2 0x9C1 DUP6 DUP3 DUP7 ADD PUSH2 0x764 JUMP JUMPDEST SWAP6 PUSH1 0x20 SWAP5 SWAP1 SWAP5 ADD CALLDATALOAD SWAP5 POP POP POP POP JUMP JUMPDEST PUSH1 0x0 DUP1 PUSH1 0x40 DUP4 DUP6 SUB SLT ISZERO PUSH2 0x9E2 JUMPI DUP2 DUP3 REVERT JUMPDEST DUP3 MLOAD PUSH8 0xFFFFFFFFFFFFFFFF DUP2 GT ISZERO PUSH2 0x9F8 JUMPI DUP3 DUP4 REVERT JUMPDEST PUSH2 0xA04 DUP6 DUP3 DUP7 ADD PUSH2 0x7B0 JUMP JUMPDEST SWAP3 POP POP PUSH1 0x20 DUP4 ADD MLOAD SWAP1 POP SWAP3 POP SWAP3 SWAP1 POP JUMP JUMPDEST PUSH1 0x0 DUP1 PUSH1 0x0 PUSH1 0x60 DUP5 DUP7 SUB SLT ISZERO PUSH2 0xA29 JUMPI DUP3 DUP4 REVERT JUMPDEST DUP4 CALLDATALOAD PUSH8 0xFFFFFFFFFFFFFFFF DUP1 DUP3 GT ISZERO PUSH2 0xA40 JUMPI DUP5 DUP6 REVERT JUMPDEST PUSH2 0xA4C DUP8 DUP4 DUP9 ADD PUSH2 0x764 JUMP JUMPDEST SWAP5 POP PUSH1 0x20 DUP7 ADD CALLDATALOAD SWAP4 POP PUSH1 0x40 DUP7 ADD CALLDATALOAD SWAP2 POP DUP1 DUP3 GT ISZERO PUSH2 0xA68 JUMPI DUP3 DUP4 REVERT JUMPDEST POP PUSH2 0xA75 DUP7 DUP3 DUP8 ADD PUSH2 0x764 JUMP JUMPDEST SWAP2 POP POP SWAP3 POP SWAP3 POP SWAP3 JUMP JUMPDEST PUSH1 0x0 PUSH1 0x20 DUP3 DUP5 SUB SLT ISZERO PUSH2 0xA90 JUMPI DUP1 DUP2 REVERT JUMPDEST POP CALLDATALOAD SWAP2 SWAP1 POP JUMP JUMPDEST PUSH1 0x0 DUP1 PUSH1 0x40 DUP4 DUP6 SUB SLT ISZERO PUSH2 0xAA9 JUMPI DUP2 DUP3 REVERT JUMPDEST DUP3 CALLDATALOAD SWAP2 POP PUSH1 0x20 DUP4 ADD CALLDATALOAD PUSH2 0x982 DUP2 PUSH2 0xCE3 JUMP JUMPDEST PUSH1 0x0 DUP2 MLOAD DUP1 DUP5 MSTORE PUSH2 0xAD3 DUP2 PUSH1 0x20 DUP7 ADD PUSH1 0x20 DUP7 ADD PUSH2 0xCA1 JUMP JUMPDEST PUSH1 0x1F ADD PUSH1 0x1F NOT AND SWAP3 SWAP1 SWAP3 ADD PUSH1 0x20 ADD SWAP3 SWAP2 POP POP JUMP JUMPDEST PUSH1 0x1 PUSH1 0x1 PUSH1 0xE0 SHL SUB NOT DUP4 AND DUP2 MSTORE DUP2 MLOAD PUSH1 0x0 SWAP1 PUSH2 0xB0A DUP2 PUSH1 0x4 DUP6 ADD PUSH1 0x20 DUP8 ADD PUSH2 0xCA1 JUMP JUMPDEST SWAP2 SWAP1 SWAP2 ADD PUSH1 0x4 ADD SWAP4 SWAP3 POP POP POP JUMP JUMPDEST PUSH1 0x0 DUP3 MLOAD PUSH2 0xB2A DUP2 DUP5 PUSH1 0x20 DUP8 ADD PUSH2 0xCA1 JUMP JUMPDEST SWAP2 SWAP1 SWAP2 ADD SWAP3 SWAP2 POP POP JUMP JUMPDEST PUSH1 0x0 PUSH1 0x40 DUP3 ADD PUSH1 0x40 DUP4 MSTORE DUP1 DUP6 MLOAD DUP1 DUP4 MSTORE PUSH1 0x60 DUP6 ADD SWAP2 POP PUSH1 0x60 DUP2 PUSH1 0x5 SHL DUP7 ADD ADD SWAP3 POP PUSH1 0x20 DUP1 DUP9 ADD DUP6 JUMPDEST DUP4 DUP2 LT ISZERO PUSH2 0xB8A JUMPI PUSH1 0x5F NOT DUP9 DUP8 SUB ADD DUP6 MSTORE PUSH2 0xB78 DUP7 DUP4 MLOAD PUSH2 0xABB JUMP JUMPDEST SWAP6 POP SWAP4 DUP3 ADD SWAP4 SWAP1 DUP3 ADD SWAP1 PUSH1 0x1 ADD PUSH2 0xB5C JUMP JUMPDEST POP POP DUP6 DUP5 SUB DUP2 DUP8 ADD MSTORE DUP7 MLOAD DUP1 DUP6 MSTORE DUP8 DUP3 ADD SWAP5 DUP3 ADD SWAP4 POP SWAP2 POP DUP5 JUMPDEST DUP3 DUP2 LT ISZERO PUSH2 0xBC0 JUMPI DUP5 MLOAD DUP5 MSTORE SWAP4 DUP2 ADD SWAP4 SWAP3 DUP2 ADD SWAP3 PUSH1 0x1 ADD PUSH2 0xBA4 JUMP JUMPDEST POP SWAP2 SWAP8 SWAP7 POP POP POP POP POP POP POP JUMP JUMPDEST PUSH1 0x40 DUP2 MSTORE PUSH1 0x0 PUSH2 0xBE0 PUSH1 0x40 DUP4 ADD DUP6 PUSH2 0xABB JUMP JUMPDEST SWAP1 POP DUP3 PUSH1 0x20 DUP4 ADD MSTORE SWAP4 SWAP3 POP POP POP JUMP JUMPDEST PUSH1 0x60 DUP2 MSTORE PUSH1 0x0 PUSH2 0xC02 PUSH1 0x60 DUP4 ADD DUP7 PUSH2 0xABB JUMP JUMPDEST DUP5 PUSH1 0x20 DUP5 ADD MSTORE DUP3 DUP2 SUB PUSH1 0x40 DUP5 ADD MSTORE PUSH2 0xC1A DUP2 DUP6 PUSH2 0xABB JUMP JUMPDEST SWAP7 SWAP6 POP POP POP POP POP POP JUMP JUMPDEST PUSH1 0x40 MLOAD PUSH1 0x1F DUP3 ADD PUSH1 0x1F NOT AND DUP2 ADD PUSH8 0xFFFFFFFFFFFFFFFF DUP2 GT DUP3 DUP3 LT OR ISZERO PUSH2 0xC4D JUMPI PUSH2 0xC4D PUSH2 0xCCD JUMP JUMPDEST PUSH1 0x40 MSTORE SWAP2 SWAP1 POP JUMP JUMPDEST PUSH1 0x0 PUSH8 0xFFFFFFFFFFFFFFFF DUP3 GT ISZERO PUSH2 0xC6F JUMPI PUSH2 0xC6F PUSH2 0xCCD JUMP JUMPDEST POP PUSH1 0x5 SHL PUSH1 0x20 ADD SWAP1 JUMP JUMPDEST PUSH1 0x0 PUSH8 0xFFFFFFFFFFFFFFFF DUP3 GT ISZERO PUSH2 0xC93 JUMPI PUSH2 0xC93 PUSH2 0xCCD JUMP JUMPDEST POP PUSH1 0x1F ADD PUSH1 0x1F NOT AND PUSH1 0x20 ADD SWAP1 JUMP JUMPDEST PUSH1 0x0 JUMPDEST DUP4 DUP2 LT ISZERO PUSH2 0xCBC JUMPI DUP2 DUP2 ADD MLOAD DUP4 DUP3 ADD MSTORE PUSH1 0x20 ADD PUSH2 0xCA4 JUMP JUMPDEST DUP4 DUP2 GT ISZERO PUSH2 0x6EF JUMPI POP POP PUSH1 0x0 SWAP2 ADD MSTORE JUMP JUMPDEST PUSH4 0x4E487B71 PUSH1 0xE0 SHL PUSH1 0x0 MSTORE PUSH1 0x41 PUSH1 0x4 MSTORE PUSH1 0x24 PUSH1 0x0 REVERT JUMPDEST PUSH1 0x1 PUSH1 0x1 PUSH1 0xA0 SHL SUB DUP2 AND DUP2 EQ PUSH2 0x41D JUMPI PUSH1 0x0 DUP1 REVERT INVALID LOG2 PUSH5 0x6970667358 0x22 SLT KECCAK256 DUP7 0xC DUP1 0xBD 0xBB PUSH18 0xC8A42F95850FA362963517742B8F80DAF38F SLOAD 0xE1 JUMPI MOD 0x4E NOT DUP5 0xD7 PUSH5 0x736F6C6343 STOP ADDMOD DIV STOP CALLER "},"methodIdentifiers":{"addCandidates(string,uint256,string)":"dac8fa2a","callTransfer(address)":"eec990f2","createNft(string,uint256)":"3e73720c","executeNftSale(uint256)":"573f301a","getListCandidates()":"690ff8a1","getWinner()":"8e7ea5b2","starting(address,address,address)":"1ea3115a","updateProxy(string,address)":"4b9ab850","vote(uint256,address)":"02d947ef"}},"storageLayout":{"storage":[{"astId":3479,"contract":"contracts/Proxy.sol:Proxy","label":"implementations","offset":0,"slot":"0","type":"t_mapping(t_bytes4,t_address)"},{"astId":3482,"contract":"contracts/Proxy.sol:Proxy","label":"transferContract","offset":0,"slot":"1","type":"t_contract(Transfer)3844"},{"astId":3485,"contract":"contracts/Proxy.sol:Proxy","label":"nftContract","offset":0,"slot":"2","type":"t_contract(Nft)3469"},{"astId":3488,"contract":"contracts/Proxy.sol:Proxy","label":"voteContract","offset":0,"slot":"3","type":"t_contract(Vote)4188"}],"types":{"t_address":{"encoding":"inplace","label":"address","numberOfBytes":"20"},"t_bytes4":{"encoding":"inplace","label":"bytes4","numberOfBytes":"4"},"t_contract(Nft)3469":{"encoding":"inplace","label":"contract Nft","numberOfBytes":"20"},"t_contract(Transfer)3844":{"encoding":"inplace","label":"contract Transfer","numberOfBytes":"20"},"t_contract(Vote)4188":{"encoding":"inplace","label":"contract Vote","numberOfBytes":"20"},"t_mapping(t_bytes4,t_address)":{"encoding":"mapping","key":"t_bytes4","label":"mapping(bytes4 => address)","numberOfBytes":"32","value":"t_address"}}}}}}