{
  "_format": "hh-sol-artifact-1",
  "contractName": "Transfer",
  "sourceName": "contracts/Transfer.sol",
  "abi": [
    {
      "anonymous": false,
      "inputs": [
        {
          "indexed": true,
          "internalType": "address",
          "name": "from",
          "type": "address"
        },
        {
          "indexed": false,
          "internalType": "address",
          "name": "to",
          "type": "address"
        },
        {
          "indexed": false,
          "internalType": "uint256",
          "name": "amount",
          "type": "uint256"
        }
      ],
      "name": "transaction",
      "type": "event"
    },
    {
      "inputs": [
        {
          "internalType": "address payable",
          "name": "_to",
          "type": "address"
        }
      ],
      "name": "_transfer",
      "outputs": [],
      "stateMutability": "payable",
      "type": "function"
    },
    {
      "inputs": [
        {
          "internalType": "address",
          "name": "from",
          "type": "address"
        },
        {
          "internalType": "address",
          "name": "to",
          "type": "address"
        },
        {
          "internalType": "uint256",
          "name": "amount",
          "type": "uint256"
        }
      ],
      "name": "saveTx",
      "outputs": [],
      "stateMutability": "nonpayable",
      "type": "function"
    }
  ],
  "bytecode": "0x608060405234801561001057600080fd5b506101db806100206000396000f3fe6080604052600436106100295760003560e01c8063eab068491461002e578063f688b4c014610043575b600080fd5b61004161003c36600461012a565b610063565b005b34801561004f57600080fd5b5061004161005e36600461014d565b6100df565b6040516001600160a01b038216903480156108fc02916000818181858888f19350505050158015610098573d6000803e3d6000fd5b50604080516001600160a01b038316815234602082015233917fb5a151ba89290d7f3b668f3d1b864e555f3ce075ee899efe5df7c5abb6881fb7910160405180910390a250565b604080516001600160a01b038481168252602082018490528516917fb5a151ba89290d7f3b668f3d1b864e555f3ce075ee899efe5df7c5abb6881fb7910160405180910390a2505050565b60006020828403121561013b578081fd5b81356101468161018d565b9392505050565b600080600060608486031215610161578182fd5b833561016c8161018d565b9250602084013561017c8161018d565b929592945050506040919091013590565b6001600160a01b03811681146101a257600080fd5b5056fea2646970667358221220e90e21a39157a8357909d2bb69eb841cf9df0042eadd88191864dacba5b4902064736f6c63430008040033",
  "linkReferences": {},
  "deployedLinkReferences": {}
}